:020000040800F2
:1000000000000820E5120008B10E0008B70E000835
:10001000BD0E0008C30E0008C90E00080000000055
:10002000000000000000000000000000CF0E0008EB
:10003000DD0E000800000000EB0E0008150B0008A4
:100040003513000835130008351300083513000870
:100050003513000835130008351300083513000860
:100060003513000835130008351300083513000850
:100070003513000835130008351300083513000840
:100080003513000835130008351300083513000830
:100090003513000835130008351300083513000820
:1000A00035130008F90E0008351300083513000851
:1000B0003513000835130008914C0008351300086B
:1000C00035130008351300083513000835130008F0
:1000D00035130008351300083513000835130008E0
:1000E00035130008351300083513000835130008D0
:1000F00035130008351300083513000835130008C0
:1001000035130008351300083513000835130008AF
:10011000351300083513000835130008351300089F
:10012000351300083513000835130008351300088F
:10013000351300083513000835130008351300087F
:10014000351300083513000835130008351300086F
:10015000351300083513000835130008351300085F
:10016000351300083513000835130008351300084F
:10017000351300083513000835130008000000008F
:10018000351300083513000835130008351300082F
:10019000351300083513000835130008351300081F
:1001A000351300083513000835130008351300080F
:1001B00035130008351300083513000835130008FF
:1001C000351300083513000800000000351300083F
:1001D00035130008351300083513000835130008DF
:1001E00035130008351300083513000835130008CF
:0801F000351300083513000867
:1002000010B5054C237833B9044B13B10448AFF350
:1002100000800123237010BD500200200000000068
:100220007094000808B5034B1BB103490348AFF3B2
:10023000008008BD000000005402002070940008F7
:10024000034613F8012B002AFBD1181A0138704716
:1002500001F0FF01102A2BDB10F0070F08D010F877
:10026000013B013A8B422DD010F0070F42B3F6D17B
:10027000F0B441EA012141EA014122F007047FF094
:1002800000070023F0E80256083C85EA010586EAEB
:10029000010685FA47F5A3FA87F586FA47F6A5FA27
:1002A00087F68EB9EED1F0BC01F0FF0102F0070233
:1002B00032B110F8013B013A83EA010313B1F8D1DE
:1002C0000020704701387047002D06BF35460338BF
:1002D000073815F0010F07D1013015F4807F02BFF8
:1002E000013015F4C03F0130F0BC0138704700BF49
:1002F00081F0004102E000BF83F0004330B54FEAD7
:1003000041044FEA430594EA050F08BF90EA020F43
:100310001FBF54EA000C55EA020C7FEA645C7FEAD6
:10032000655C00F0E2804FEA5454D4EB5555B8BFF9
:100330006D420CDD2C4480EA020281EA030382EA6A
:10034000000083EA010180EA020281EA0303362DFC
:1003500088BF30BD11F0004F4FEA01314FF4801CCF
:100360004CEA113102D0404261EB410113F0004FE1
:100370004FEA03334CEA133302D0524263EB430398
:1003800094EA050F00F0A780A4F10104D5F1200E36
:100390000DDB02FA0EFC22FA05F2801841F1000191
:1003A00003FA0EF2801843FA05F359410EE0A5F165
:1003B00020050EF1200E012A03FA0EFC28BF4CF096
:1003C000020C43FA05F3C01851EBE37101F000454C
:1003D00007D54FF0000EDCF1000C7EEB00006EEB59
:1003E0000101B1F5801F1BD3B1F5001F0CD34908E3
:1003F0005FEA30004FEA3C0C04F101044FEA44523A
:1004000012F5800F80F09A80BCF1004F08BF5FEAC0
:10041000500C50F1000041EB045141EA050130BDA0
:100420005FEA4C0C404141EB0101013C28BFB1F5B2
:10043000801FE9D291F0000F04BF01460020B1FAFD
:1004400081F308BF2033A3F10B03B3F120020CDAD0
:100450000C3208DD02F1140CC2F10C0201FA0CF0AE
:1004600021FA02F10CE002F11402D8BFC2F1200C13
:1004700001FA02F120FA0CFCDCBF41EA0C019040C9
:10048000E41AA2BF01EB0451294330BD6FEA040412
:100490001F3C1CDA0C340EDC04F11404C4F12002FD
:1004A00020FA04F001FA02F340EA030021FA04F30F
:1004B00045EA030130BDC4F10C04C4F1200220FA66
:1004C00002F001FA04F340EA0300294630BD21FAA4
:1004D00004F0294630BD94F0000F83F4801306BF6A
:1004E00081F480110134013D4EE77FEA645C18BF5E
:1004F0007FEA655C29D094EA050F08BF90EA020FF5
:1005000005D054EA000C04BF1946104630BD91EAEC
:10051000030F1EBF0021002030BD5FEA545C05D1EF
:100520004000494128BF41F0004130BD14F580042E
:100530003CBF01F5801130BD01F0004545F0FE41A2
:1005400041F470014FF0000030BD7FEA645C1ABFD7
:10055000194610467FEA655C1CBF0B46024650EA0E
:10056000013406BF52EA033591EA030F41F400213A
:1005700030BD00BF90F0000F04BF0021704730B5C0
:100580004FF4806404F132044FF000054FF0000195
:1005900050E700BF90F0000F04BF0021704730B556
:1005A0004FF4806404F1320410F0004548BF40422B
:1005B0004FF000013EE700BF42004FEAE2014FEA80
:1005C00031014FEA02701FBF12F07F4393F07F4F5B
:1005D00081F06051704732F07F4208BF704793F05E
:1005E0007F4F04BF41F40021704730B54FF4607471
:1005F00001F0004521F000411CE700BF50EA010274
:1006000008BF704730B54FF000050AE050EA01021C
:1006100008BF704730B511F0004502D5404261EB8C
:1006200041014FF4806404F132045FEA915C3FF4CD
:10063000D8AE4FF003025FEADC0C18BF03325FEA6A
:10064000DC0C18BF033202EBDC02C2F1200300FA1B
:1006500003FC20FA02F001FA03FE40EA0E0021FA40
:1006600002F11444BDE600BF53B94AB9002908BFDE
:1006700000281CBF4FF0FF314FF0FF3000F0ACB945
:10068000ADF1080C6DE904CE00F03EF8DDF804E0B1
:10069000DDE9022304B0704708B502460B4643EC7F
:1006A000172BB5EEC07BF1EE10FA03D4BDE808407D
:1006B00000F00AB8B1EE477B51EC170B00F004F8DC
:1006C000404261EB410108BD9FED0B6B41EC170B04
:1006D0009FED0B5B27EE066BBCEEC66BB8EE464B90
:1006E000A4EE457BFCEEC77B16EE101A17EE900ABF
:1006F000704700BFAFF30080000000000000F03D35
:10070000000000000000F0412DE9F047089D04467C
:100710008E46002B4DD18A42944669D9B2FA82F2B4
:1007200052B101FA02F3C2F1200120FA01F10CFAF0
:1007300002FC41EA030E94404FEA1C48210CBEFB28
:10074000F8F61FFA8CF708FB16E341EA034306FBB1
:1007500007F199420AD91CEB030306F1FF3080F040
:100760001F81994240F21C81023E63445B1AA4B28D
:10077000B3FBF8F008FB103344EA034400FB07F72F
:10078000A7420AD91CEB040400F1FF3380F00A8170
:10079000A74240F207816444023840EA0640E41B65
:1007A00000261DB1D4400023C5E900433146BDE811
:1007B000F0878B4209D9002D00F0EF800026C5E9B3
:1007C000000130463146BDE8F087B3FA83F6002ECB
:1007D0004AD18B4202D3824200F2F980841A61EB43
:1007E000030301209E46002DE0D0C5E9004EDDE761
:1007F00002B9FFDEB2FA82F2002A40F09280A1EB49
:100800000C014FEA1C471FFA8CFE0126200CB1FB9D
:10081000F7F307FB131140EA01410EFB03F0884296
:1008200008D91CEB010103F1FF3802D2884200F223
:10083000CB804346091AA4B2B1FBF7F007FB1011B5
:1008400044EA01440EFB00FEA64508D91CEB040453
:1008500000F1FF3102D2A64500F2BB800846A4EBAE
:100860000E0440EA03409CE7C6F12007B34022FA99
:1008700007FC4CEA030C20FA07F401FA06F31C43C8
:10088000F9404FEA1C4900FA06F3B1FBF9F8200CD5
:100890001FFA8CFE09FB181140EA014108FB0EF01B
:1008A000884202FA06F20BD91CEB010108F1FF3A6B
:1008B00080F08880884240F28580A8F10208614477
:1008C000091AA4B2B1FBF9F009FB101144EA014185
:1008D00000FB0EFE8E4508D91CEB010100F1FF3430
:1008E0006CD28E456AD90238614440EA0840A0FBC8
:1008F0000294A1EB0E01A142C846A64656D353D09E
:100900005DB1B3EB080261EB0E0101FA07F722FAC1
:1009100006F3F1401F43C5E9007100263146BDE8EA
:10092000F087C2F12003D8400CFA02FC21FA03F34D
:10093000914001434FEA1C471FFA8CFEB3FBF7F0CE
:1009400007FB10360B0C43EA064300FB0EF69E42F3
:1009500004FA02F408D91CEB030300F1FF382FD28C
:100960009E422DD9023863449B1B89B2B3FBF7F634
:1009700007FB163341EA034106FB0EF38B4208D90D
:100980001CEB010106F1FF3816D28B4214D9023E4E
:100990006144C91A46EA004638E72E46284605E76C
:1009A0000646E3E61846F8E64B45A9D2B9EB02083D
:1009B00064EB0C0E0138A3E74646EAE7204694E7CD
:1009C0004046D1E7D0467BE7023B614432E7304600
:1009D00009E76444023842E7704700BF80B483B03F
:1009E00000AF03463960FB7197F90730002B0ADB33
:1009F0003B68DAB20C4997F907301201D2B20B44C6
:100A000083F800230AE03B68DAB20849FB7903F077
:100A10000F03043B1201D2B20B441A7600BF0C370D
:100A2000BD465DF8047B704700E100E000ED00E0AA
:100A300080B582B000AF78607B68013BB3F1807F06
:100A400001D301230FE00A4A7B68013B53600F2169
:100A50004FF0FF30FFF7C2FF054B00229A60044BB6
:100A600007221A60002318460837BD4680BD00BF24
:100A700010E000E080B500AF00F008F8024803F095
:100A8000DBFD00BF80BD00BFD50A000880B500AF08
:100A9000054B1B68054AA2FB03235B091846FFF7B9
:100AA000C7FF00BF80BD00BF000000201F85EB51C5
:100AB00080B483B000AFEFF310837B607B68002BC2
:100AC0000CBF01230023DBB218460C37BD465DF88E
:100AD000047B704780B582B000AF03463960FB717C
:100AE000FB79002B07D1FFF7E3FF03461A463B686B
:100AF0001A7072B60AE0FB79012B07D13B681B78AC
:100B0000002B01D062B601E072B600BF00BF08370B
:100B1000BD4680BD80B500AF03F024FE00BF80BDA0
:100B200080B58AB000AF07F1140300221A605A6042
:100B30009A60DA601A61304B1B6B2F4A43F0040352
:100B400013632D4B1B6B03F004033B613B692A4B82
:100B50001B6B294A43F080031363274B1B6B03F085
:100B60008003FB60FB68244B1B6B234A43F00203AA
:100B70001363214B1B6B03F00203BB60BB681E4B6E
:100B80001B6B1D4A43F0010313631B4B1B6B03F0EC
:100B900001037B607B6801220321184800F09EFE60
:100BA0004FF400537B610023BB610123FB6107F11C
:100BB00014031946124800F0CDFC0C237B6100237E
:100BC000BB610123FB6107F1140319460D4800F0D6
:100BD000C1FC03237B610123BB610123FB61022371
:100BE0003B6207F114031946044800F0B3FC00BF50
:100BF0002837BD4680BD00BF0038024000040240D7
:100C000000080240001C024080B500AF00F093FBDA
:100C100000F032F8FFF784FF00F0D6FA00F04EFA49
:100C2000114802F00BF8FFF725FF03F019FD03F060
:100C300005FF03F0E5FA012301220C49002003F02F
:100C40004BFD03F057F9012301220949012003F06C
:100C500043FD04F02BF8012301220649022003F092
:100C60003BFD03F0DDFDFEE7BC02002091420008E1
:100C7000893F0008C14C000880B594B000AF07F16F
:100C80001C0334220021184604F082F807F10803FF
:100C900000221A605A609A60DA601A612B4B1B6C52
:100CA0002A4A43F080531364284B1B6C03F0805393
:100CB0007B607B68264B1B68254A43F440431360E6
:100CC000234B1B6803F440433B603B680223FB61FA
:100CD0000123BB621023FB6202237B630023BB63FF
:100CE0000823FB63D8233B6402237B640223BB6499
:100CF0000223FB6407F11C03184600F059FE03466B
:100D0000002B01D000F038F800F002FE0346002B63
:100D100001D000F031F80F23BB600223FB600023F9
:100D20003B614FF4A0537B614FF48053BB6107F1EB
:100D300008030721184601F0E9F80346002B01D00B
:100D400000F01AF800BF5037BD4680BD00380240A1
:100D50000070004080B582B000AF78607B681B688F
:100D6000044A934201D100F0F3FA00BF0837BD46B0
:100D700080BD00BF0000014080B400AF72B600BF6C
:100D8000FEE7000080B483B000AF0F4B1B6C0E4A2F
:100D900043F0805313640C4B1B6C03F080537B6057
:100DA0007B68094B5B6C084A43F480435364064BF1
:100DB0005B6C03F480433B603B6800BF0C37BD466F
:100DC0005DF8047B704700BF0038024080B58CB0EE
:100DD00000AF78600023BB6200237B622F4B5B6C0B
:100DE0002E4A43F0010353642C4B5B6C03F0010368
:100DF000BB60BB6807F10C0207F1100311461846EF
:100E000001F06AFA01F054FA03465B00BB62BB6A68
:100E1000234AA2FB03239B0C013B7B62214B224A0A
:100E20001A60204B40F2E732DA601E4A7B6A536058
:100E30001C4B00221A611B4B00229A60194B0022A6
:100E40009A61184801F0A2FE034687F82F3097F800
:100E50002F30002B1BD1134801F0F0FE034687F81A
:100E60002F3097F82F30002B11D1192000F064FBA0
:100E70007B680F2B08D800227968192000F040FB0E
:100E80000A4A7B68136002E0012387F82F3097F845
:100E90002F3018463037BD4680BD00BF00380240B5
:100EA00083DE1B436C020020000001400400002090
:100EB00080B400AFFEE780B400AFFEE780B400AFBF
:100EC000FEE780B400AFFEE780B400AFFEE780B479
:100ED00000AF00BFBD465DF8047B704780B400AF33
:100EE00000BFBD465DF8047B704780B400AF00BF13
:100EF000BD465DF8047B704780B500AF024801F045
:100F000015FF00BF80BD00BF6C02002080B400AFA1
:100F100001231846BD465DF8047B704780B582B05A
:100F200000AF7860396003F009FF034616221A60AB
:100F30004FF0FF3318460837BD4680BD80B582B0FC
:100F400000AF78604FF0FF317868FFF7E7FFFEE70A
:100F500080B586B000AFF860B9607A6000237B612D
:100F60000AE0AFF300800146BB685A1CBA60CAB2FF
:100F70001A707B6901337B617A697B689A42F0DB86
:100F80007B6818461837BD4680BD80B586B000AF77
:100F9000F860B9607A6000237B6109E0BB685A1C85
:100FA000BA601B78184600F0FDF87B6901337B615D
:100FB0007A697B689A42F1DB7B6818461837BD4630
:100FC00080BD80B483B000AF78604FF0FF33184627
:100FD0000C37BD465DF8047B704780B483B000AF2A
:100FE000786039603B684FF400525A60002318461D
:100FF0000C37BD465DF8047B704780B483B000AF0A
:101000007860012318460C37BD465DF8047B7047B5
:1010100080B485B000AFF860B9607A6000231846EC
:101020001437BD465DF8047B7047000080B586B07C
:1010300000AF7860144A154BD31A7B617B693B6122
:10104000134B1B68002B02D1114B124A1A60104B34
:101050001A687B6813443A699A4207D203F06EFE1D
:1010600003460C221A604FF0FF3309E0084B1B685F
:10107000FB60074B1A687B681344054A1360FB68E2
:1010800018461837BD4680BD000008200004000047
:10109000B80200202804002080B400AF064BD3F82B
:1010A0008830054A43F47003C2F8883000BFBD465B
:1010B0005DF8047B704700BF00ED00E080B588B0AC
:1010C00000AF07F1100300221A605A609A60DA60DC
:1010D0003B1D00221A605A609A601D4B1D4A1A601F
:1010E0001B4B6B225A601A4B00229A60184B32221B
:1010F000DA60174B00221A61154B00229A611448DE
:1011000001F044FD0346002B01D0FFF735FE4FF4FC
:1011100080533B6107F1100319460D4801F026FF8B
:101120000346002B01D0FFF727FE00237B6000233E
:10113000FB603B1D1946064802F044F90346002BAC
:1011400001D0FFF719FE00BF2037BD4680BD00BFAC
:10115000BC0200200008004080B584B000AF786079
:101160007B681B680D4A934213D10D4B1B6C0C4AD4
:1011700043F0040313640A4B1B6C03F00403FB608D
:10118000FB68002200211E2000F0BAF91E2000F0AA
:10119000D3F900BF1037BD4680BD00BF0008004036
:1011A0000038024080B582B000AF7860391D4FF63C
:1011B000FF730122034802F0FFF97B6818460837E5
:1011C000BD4680BD0803002080B500AF144B154A12
:1011D0001A60134B4FF4E1325A60114B00229A60AF
:1011E0000F4B0022DA600E4B00221A610C4B0C22CE
:1011F0005A610B4B00229A61094B0022DA61084BBD
:1012000000221A62064B00225A62054802F086F953
:101210000346002B01D0FFF7AFFD00BF80BD00BF2C
:10122000080300200010014080B5AEB000AF786028
:1012300007F1A40300221A605A609A60DA601A610A
:1012400007F1140390220021184603F0A1FD7B68EA
:101250001B68214A93423BD140237B610023BB653D
:1012600007F11403184601F069F80346002B01D07A
:10127000FFF782FD194B5B6C184A43F0100353646F
:10128000164B5B6C03F010033B613B69134B1B6B0C
:10129000124A43F001031363104B1B6B03F001036D
:1012A000FB60FB684FF4C063C7F8A4300223C7F8A3
:1012B000A8300023C7F8AC300323C7F8B0300723A9
:1012C000C7F8B43007F1A4031946054800F042F905
:1012D00000BFB837BD4680BD001001400038024055
:1012E00000000240DFF834D00D480E490E4A0023BA
:1012F00002E0D458C4500433C4188C42F9D30B4ACA
:101300000B4C002301E013600432A242FBD3FFF731
:10131000C3FE03F019FDFFF777FC704700000820BB
:1013200000000020500200205499000850020020C4
:1013300028040020FEE780B500AF032000F0D5F8B8
:101340000020FFF743FDFFF71DFD0023184680BD79
:1013500080B400AF064B1B781A46064B1B6813443B
:10136000044A136000BFBD465DF8047B704700BFB0
:10137000080000209003002080B400AF034B1B68DE
:101380001846BD465DF8047B704700BF90030020FF
:1013900080B485B000AF78607B6803F00703FB6022
:1013A0000B4BDB68BB60BA684FF6FF031340BB60B2
:1013B000FB681A02BB681A43064B1343BB60044A1E
:1013C000BB68D36000BF1437BD465DF8047B70472F
:1013D00000ED00E00000FA0580B400AF044BDB68CC
:1013E0001B0A03F007031846BD465DF8047B7047EF
:1013F00000ED00E080B483B000AF0346FB7197F9C5
:101400000730002B0BDBFB7903F01F02074997F92C
:1014100007305B09012000FA02F241F8232000BFE7
:101420000C37BD465DF8047B704700BF00E100E06B
:1014300080B483B000AF03463960FB7197F9073081
:10144000002B0ADB3B68DAB20C4997F9073012012E
:10145000D2B20B4483F800230AE03B68DAB20849B1
:10146000FB7903F00F03043B1201D2B20B441A764E
:1014700000BF0C37BD465DF8047B704700E100E01B
:1014800000ED00E080B489B000AFF860B9607A6028
:10149000FB6803F00703FB61FB69C3F10703042B3F
:1014A00028BF0423BB61FB690433062B02D9FB6907
:1014B000033B00E000237B614FF0FF32BB6902FA7F
:1014C00003F3DA43BB681A407B699A404FF0FF315F
:1014D0007B6901FA03F3D9437B680B401343184639
:1014E0002437BD465DF8047B704780B582B000AFFD
:1014F00078607868FFF74CFF00BF0837BD4680BDB5
:1015000080B586B000AF0346B9607A60FB730023F4
:101510007B61FFF761FF78617A68B9687869FFF7E6
:10152000B1FF024697F90F3011461846FFF780FFCA
:1015300000BF1837BD4680BD80B582B000AF0346FE
:10154000FB7197F907301846FFF754FF00BF0837C3
:10155000BD4680BD80B489B000AF7860396000239B
:10156000FB6100237B6100233B610023BB610023FF
:10157000FB6175E10122FB6902FA03F37B613B68C1
:101580001B687A6913403B613A697B699A4240F073
:1015900064813B685B6803F00303012B05D03B6863
:1015A0005B6803F00303022B30D17B689B68BB614F
:1015B000FB695B00032202FA03F3DB43BA691340C1
:1015C000BB613B68DA68FB695B0002FA03F3BA6946
:1015D0001343BB617B68BA699A607B685B68BB61D7
:1015E0000122FB6902FA03F3DB43BA691340BB61D2
:1015F0003B685B681B0903F00102FB6902FA03F315
:10160000BA691343BB617B68BA695A603B685B681F
:1016100003F00303032B17D07B68DB68BB61FB6916
:101620005B00032202FA03F3DB43BA691340BB6198
:101630003B689A68FB695B0002FA03F3BA691343DB
:10164000BB617B68BA69DA603B685B6803F00303DF
:10165000022B23D1FB69DA087B68083253F8223069
:10166000BB61FB6903F007039B000F2202FA03F33F
:10167000DB43BA691340BB613B681A69FB6903F03D
:1016800007039B0002FA03F3BA691343BB61FB69CA
:10169000DA087B680832B96943F822107B681B6856
:1016A000BB61FB695B00032202FA03F3DB43BA6907
:1016B0001340BB613B685B6803F00302FB695B009E
:1016C00002FA03F3BA691343BB617B68BA691A6013
:1016D0003B685B6803F44033002B00F0BE80664B30
:1016E0005B6C654A43F480435364634B5B6C03F467
:1016F0008043FB60FB68614AFB699B08023352F838
:101700002330BB61FB6903F003039B000F2202FA45
:1017100003F3DB43BA691340BB617B68584A9342C9
:1017200037D07B68574A934231D07B68564A934200
:101730002BD07B68554A934225D07B68544A93420C
:101740001FD07B68534A934219D07B68524A934218
:1017500013D07B68514A93420DD07B68504A934224
:1017600007D07B684F4A934201D1092312E00A2334
:1017700010E008230EE007230CE006230AE005230F
:1017800008E0042306E0032304E0022302E001232F
:1017900000E00023FA6902F0030292009340BA6964
:1017A0001343BB613549FB699B080233BA6941F8B1
:1017B00023203D4B9B68BB613B69DB43BA69134007
:1017C000BB613B685B6803F48013002B03D0BA69EC
:1017D0003B691343BB61344ABB699360324BDB689E
:1017E000BB613B69DB43BA691340BB613B685B6823
:1017F00003F40013002B03D0BA693B691343BB61A8
:10180000294ABB69D360284B5B68BB613B69DB43FA
:10181000BA691340BB613B685B6803F40033002B7B
:1018200003D0BA693B691343BB611F4ABB6953606C
:101830001D4B1B68BB613B69DB43BA691340BB614D
:101840003B685B6803F48033002B03D0BA693B69C3
:101850001343BB61144ABB691360FB690133FB612D
:10186000FB690F2B7FF686AE00BF00BF2437BD4655
:101870005DF8047B704700BF00380240003801402B
:10188000000002400004024000080240000C024038
:10189000001002400014024000180240001C0240E8
:1018A0000020024000240240003C014080B485B08A
:1018B00000AF78600B467B807B681A697B88134099
:1018C000002B02D00123FB7301E00023FB73FB7BA1
:1018D00018461437BD465DF8047B704780B483B06A
:1018E00000AF78600B467B8013467B707B78002BC3
:1018F00003D07A887B689A6103E07B881A047B684E
:101900009A6100BF0C37BD465DF8047B704700004C
:1019100080B582B000AF00237B60234B1B6C224A52
:1019200043F080531364204B1B6C03F080533B60E7
:101930003B681E4B1B681D4A43F480331360FFF75E
:101940001BFD786009E0FFF717FD02467B68D31A9C
:10195000B3F57A7F01D9032322E0144B5B6803F4CB
:101960008033B3F5803FEED1104B1B680F4A43F430
:1019700000331360FFF700FD786009E0FFF7FCFC1F
:1019800002467B68D31AB3F57A7F01D9032307E0B7
:10199000064B5B6803F40033B3F5003FEED1002340
:1019A00018460837BD4680BD003802400070004030
:1019B00080B586B000AF78600023FB757B68002B94
:1019C00001D101239BE27B681B6803F00103002B1C
:1019D00000F08780964B9B6803F00C03042B0CD01F
:1019E000934B9B6803F00C03082B12D1904B5B6860
:1019F00003F48003B3F5800F0BD18D4B1B6803F408
:101A00000033002B6CD07B685B68002B68D101230E
:101A100075E27B685B68B3F5803F06D1844B1B6839
:101A2000834A43F4803313602EE07B685B68002BAD
:101A30000CD17F4B1B687E4A23F4803313607C4BB0
:101A40001B687B4A23F4802313601DE07B685B687E
:101A5000B3F5A02F0CD1764B1B68754A43F4802355
:101A60001360734B1B68724A43F4803313600BE0BE
:101A70006F4B1B686E4A23F4803313606C4B1B68FA
:101A80006B4A23F4802313607B685B68002B13D0C0
:101A9000FFF772FC386108E0FFF76EFC02463B6915
:101AA000D31A642B01D9032329E2614B1B6803F489
:101AB0000033002BF0D014E0FFF75EFC386108E043
:101AC000FFF75AFC02463B69D31A642B01D9032362
:101AD00015E2574B1B6803F40033002BF0D100E0F4
:101AE00000BF7B681B6803F00203002B69D0504BDA
:101AF0009B6803F00C03002B0BD04D4B9B6803F04D
:101B00000C03082B1CD14A4B5B6803F48003002BA9
:101B100016D1474B1B6803F00203002B05D07B68EE
:101B2000DB68012B01D00123E9E1414B1B6823F065
:101B3000F8027B681B69DB003D4913430B6040E002
:101B40007B68DB68002B23D0394B1B68384A43F095
:101B500001031360FFF710FC386108E0FFF70CFC8D
:101B600002463B69D31A022B01D90323C7E1304B4C
:101B70001B6803F00203002BF0D02D4B1B6823F0F1
:101B8000F8027B681B69DB00294913430B6018E0EE
:101B9000274B1B68264A23F001031360FFF7ECFB79
:101BA000386108E0FFF7E8FB02463B69D31A022BD5
:101BB00001D90323A3E11E4B1B6803F00203002B92
:101BC000F0D17B681B6803F00803002B38D07B68DA
:101BD0005B69002B19D0164B5B6F154A43F001036C
:101BE0005367FFF7C9FB386108E0FFF7C5FB024602
:101BF0003B69D31A022B01D9032380E10C4B5B6FA5
:101C000003F00203002BF0D01AE0094B5B6F084A87
:101C100023F001035367FFF7AFFB38610AE0FFF7DA
:101C2000ABFB02463B69D31A022B03D9032366E1BF
:101C300000380240924B5B6F03F00203002BEED1A1
:101C40007B681B6803F00403002B00F0A4808C4B1E
:101C50001B6C03F08053002B0DD1894B1B6C884A01
:101C600043F080531364864B1B6C03F08053BB60BE
:101C7000BB680123FB75834B1B6803F48073002B47
:101C800018D1804B1B687F4A43F480731360FFF7C1
:101C900073FB386108E0FFF76FFB02463B69D31A1C
:101CA000642B01D903232AE1764B1B6803F480736C
:101CB000002BF0D07B689B68012B06D1704B1B6F0B
:101CC0006F4A43F0010313672DE07B689B68002B8C
:101CD0000CD16B4B1B6F6A4A23F001031367684BEF
:101CE0001B6F674A23F0040313671CE07B689B6843
:101CF000052B0CD1624B1B6F614A43F00403136741
:101D00005F4B1B6F5E4A43F0010313670BE05C4BB4
:101D10001B6F5B4A23F001031367594B1B6F584A33
:101D200023F0040313677B689B68002B15D0FFF733
:101D300023FB38610AE0FFF71FFB02463B69D31A19
:101D400041F28832934201D90323D8E04C4B1B6FF8
:101D500003F00203002BEED014E0FFF70DFB386117
:101D60000AE0FFF709FB02463B69D31A41F28832C9
:101D7000934201D90323C2E0414B1B6F03F00203DE
:101D8000002BEED1FB7D012B05D13D4B1B6C3C4A5A
:101D900023F0805313647B689B69002B00F0AE80B6
:101DA000374B9B6803F00C03082B6DD07B689B6955
:101DB000022B4BD1324B1B68314A23F080731360E6
:101DC000FFF7DAFA386108E0FFF7D6FA02463B6916
:101DD000D31A022B01D9032391E0294B1B6803F08E
:101DE0000073002BF0D17B68DA697B681B6A1A43A9
:101DF0007B685B6A9B011A437B689B6A5B08013BBB
:101E00001B041A437B68DB6A1B061A437B681B6B47
:101E10001B071B4913434B60194B1B68184A43F0BF
:101E200080731360FFF7A8FA386108E0FFF7A4FA9F
:101E300002463B69D31A022B01D903235FE0104B02
:101E40001B6803F00073002BF0D057E00C4B1B68AD
:101E50000B4A23F080731360FFF78EFA386108E0B5
:101E6000FFF78AFA02463B69D31A022B01D90323F2
:101E700045E0034B1B6803F00073002BF0D13DE0FD
:101E800000380240007000401F4B5B68FB607B68BD
:101E90009B69012B30D0FB6803F480027B68DB690F
:101EA0009A4229D1FB6803F03F027B681B6A9A4281
:101EB00022D1FA6847F6C07313407A68526A9201D9
:101EC000934219D1FB6803F440327B689B6A5B083C
:101ED000013B1B049A420FD1FB6803F070627B68E0
:101EE000DB6A1B069A4207D1FB6803F0E0427B687D
:101EF0001B6B1B079A4201D0012300E00023184608
:101F00001837BD4680BD00BF0038024080B584B0A0
:101F100000AF786039600023FB607B68002B01D143
:101F20000123D0E06A4B1B6803F00F033A689A4222
:101F300010D9674B1B6823F00F0265493B681343B8
:101F40000B60634B1B6803F00F033A689A4201D0A1
:101F50000123B8E07B681B6803F00203002B20D04C
:101F60007B681B6803F00403002B05D0594B9B686A
:101F7000584A43F4E05393607B681B6803F00803FE
:101F8000002B05D0534B9B68524A43F46043936047
:101F9000504B9B6823F0F0027B689B684D491343CC
:101FA0008B607B681B6803F00103002B40D07B68CB
:101FB0005B68012B07D1474B1B6803F40033002BF0
:101FC00015D101237FE07B685B68022B07D1414B71
:101FD0001B6803F00073002B09D1012373E03D4B14
:101FE0001B6803F00203002B01D101236BE0394B86
:101FF0009B6823F003027B685B68364913438B6060
:10200000FFF7BAF9F8600AE0FFF7B6F90246FB6895
:10201000D31A41F28832934201D9032353E02D4B66
:102020009B6803F00C027B685B689B009A42EBD1D3
:10203000274B1B6803F00F033A689A4210D2244BD7
:102040001B6823F00F0222493B6813430B60204BAF
:102050001B6803F00F033A689A4201D0012332E073
:102060007B681B6803F00403002B08D0194B9B68A6
:1020700023F4E0527B68DB68164913438B607B686E
:102080001B6803F00803002B09D0124B9B6823F454
:1020900060427B681B69DB000E4913438B6000F0D4
:1020A00021F802460B4B9B681B0903F00F030A49FA
:1020B000CB5C22FA03F3094A1360094B1B681846EC
:1020C000FEF784FE002318461037BD4680BD00BFD2
:1020D000003C0240003802408894000800000020C4
:1020E000040000202DE9B04F90B000AF00237B63C7
:1020F0000023FB6300233B630023BB63594B9B68B6
:1021000003F00C03082B0DD0082B00F2A180002B4C
:1021100002D0042B03D09BE0534BBB639BE0534B9B
:10212000BB6398E04F4B5B6803F03F037B634D4B11
:102130005B6803F48003002B28D04A4B5B689B0943
:1021400000223B627A623B6AC3F308000021474BDE
:1021500003FB01F2002300FB03F31344434AA0FBFB
:102160000212FA620A46BA62FA6A1344FB627B6B95
:102170000022BB61FA61D7E90623D7E90A01FEF71D
:1021800073FA02460B461346FB6353E0354B5B681C
:102190009B0900223B617A613B69C3F3080A4FF057
:1021A000000B52465B464FF000004FF00001590112
:1021B00041EAD261500102460B46B2EB0A0863EBDA
:1021C0000B094FF000024FF000034FEA891343EA76
:1021D00098634FEA8812B2EB080463EB09054FF0ED
:1021E00000024FF00003EB0043EA5473E200144690
:1021F0001D4614EB0A033B6045EB0B037B604FF07D
:1022000000024FF00003D7E9004529468B02214622
:1022100043EA915321468A02104619467B6B0022FD
:10222000BB60FA60D7E90223FEF71EFA02460B46AE
:102230001346FB630B4B5B681B0C03F0030301337A
:102240005B003B63FA6B3B6BB2FBF3F3BB6302E0F7
:10225000054BBB6300BFBB6B18464037BD46BDE8AE
:10226000B08F00BF003802400024F40040787D01A8
:1022700080B400AF034B1B681846BD465DF8047B75
:10228000704700BF0000002080B500AFFFF7F0FFEF
:102290000246054B9B689B0A03F007030349CB5C8E
:1022A00022FA03F3184680BD0038024098940008D3
:1022B00080B500AFFFF7DCFF0246054B9B685B0B68
:1022C00003F007030349CB5C22FA03F3184680BDF1
:1022D000003802409894000880B483B000AF786062
:1022E00039607B680F221A60124B9B6803F003026F
:1022F0007B685A600F4B9B6803F0F0027B689A6022
:102300000C4B9B6803F4E0527B68DA60094B9B68D6
:10231000DB0803F4E0527B681A61074B1B6803F08B
:102320000F023B681A6000BF0C37BD465DF8047BA6
:10233000704700BF00380240003C024080B588B0C2
:1023400000AF786000237B6100233B610023FB60CA
:102350000023FB610023BB617B681B6803F0010362
:10236000002B12D0694B9B68684A23F400039360EA
:10237000664B9A687B685B6B644913438B607B6830
:102380005B6B002B01D10123FB617B681B6803F4AD
:102390000023002B17D05D4BD3F88C3023F4401270
:1023A0007B68DB6B59491343C1F88C307B68DB6B6E
:1023B000B3F5801F01D10123FB617B68DB6B002B30
:1023C00001D10123BB617B681B6803F48013002BE0
:1023D00017D04E4BD3F88C3023F440027B681B6C33
:1023E0004A491343C1F88C307B681B6CB3F5800FEE
:1023F00001D10123FB617B681B6C002B01D1012300
:10240000BB617B681B6803F08073002B01D0012344
:10241000FB617B681B6803F02003002B00F08B80BE
:102420003A4B1B6C394A43F080531364374B1B6C97
:1024300003F08053BB60BB68354B1B68344A43F4E0
:1024400080731360FEF798FF786108E0FEF794FF51
:1024500002467B69D31A642B01D903238FE32C4BEB
:102460001B6803F48073002BF0D0284B1B6F03F420
:1024700040733B613B69002B35D07B681B6B03F4D9
:1024800040733A699A422ED0204B1B6F23F440735D
:102490003B611E4B1B6F1D4A43F4803313671B4B7C
:1024A0001B6F1A4A23F480331367184A3B6913677A
:1024B000164B1B6F03F00103012B14D1FEF75CFFD9
:1024C00078610AE0FEF758FF02467B69D31A41F2B1
:1024D0008832934201D9032351E30C4B1B6F03F065
:1024E0000203002BEED07B681B6B03F44073B3F543
:1024F000407F11D1054B9B6823F4F8127B68196B60
:10250000044B0B40014913438B600BE00038024041
:1025100000700040FFFCFF0FAC4B9B68AB4A23F4FC
:10252000F8139360A94B1A6F7B681B6BC3F30B0303
:10253000A64913430B677B681B6803F01003002B4D
:1025400010D0A24BD3F88C30A04A23F08073C2F88D
:102550008C309E4BD3F88C207B689B6B9B4913433C
:10256000C1F88C307B681B6803F48043002B0AD0D1
:10257000964BD3F8903023F440327B685B6E9349DE
:102580001343C1F890307B681B6803F40043002BB1
:102590000AD08E4BD3F8903023F440227B689B6E98
:1025A0008A491343C1F890307B681B6803F4803379
:1025B000002B0AD0854BD3F8903023F440127B686F
:1025C000DB6E82491343C1F890307B681B6803F4CB
:1025D0000033002B0AD07D4BD3F8903023F4400217
:1025E0007B681B6F79491343C1F890307B681B6887
:1025F00003F04003002B0AD0744BD3F8903023F043
:1026000003027B685B6C71491343C1F890307B68AF
:102610001B6803F08003002B0AD06C4BD3F890307A
:1026200023F00C027B689B6C68491343C1F890301F
:102630007B681B6803F48073002B0AD0634BD3F8CC
:10264000903023F030027B68DB6C60491343C1F8A3
:1026500090307B681B6803F40073002B0AD05B4B3F
:10266000D3F8903023F0C0027B681B6D57491343A9
:10267000C1F890307B681B6803F48063002B0AD09C
:10268000524BD3F8903023F440727B685B6D4F4916
:102690001343C1F890307B681B6803F40063002B80
:1026A0000AD04A4BD3F8903023F440627B689B6D8C
:1026B00046491343C1F890307B681B6803F480538C
:1026C000002B0AD0414BD3F8903023F440527B6862
:1026D000DB6D3E491343C1F890307B681B6803F4FF
:1026E0000053002B0AD0394BD3F8903023F44042EA
:1026F0007B681B6E35491343C1F890307B681B68BB
:1027000003F48003002B0AD0304BD3F8903023F031
:1027100080627B689B6F2D491343C1F890307B68C2
:102720001B6803F40013002B11D0284BD3F8903012
:1027300023F000627B68DB6F24491343C1F89030BB
:102740007B68DB6FB3F1006F01D10123BB617B6854
:102750001B6803F00803002B01D00123BB617B68D9
:102760001B6803F48023002B0AD0184BD3F8903059
:1027700023F040727B685B6F14491343C1F89030BB
:102780007B681B6803F40003002B0BD00F4BD3F8BE
:10279000903023F080527B68D3F880300B4913438C
:1027A000C1F890307B681B6803F08063002B0FD06A
:1027B000064BD3F8903023F000527B68D3F8843076
:1027C00002491343C1F8903002E000BF00380240D4
:1027D0007B681B6803F00063002B0BD08A4BD3F897
:1027E0008C3023F000727B68D3F88830864913431D
:1027F000C1F88C307B681B6803F08053002B0BD032
:10280000814BD3F88C3023F080627B68D3F88C3016
:102810007D491343C1F88C30FB69012B06D07B68DE
:102820001B6803F00073002B00F0D680764B1B680A
:10283000754A23F080631360FEF79EFD786108E01F
:10284000FEF79AFD02467B69D31A642B01D9032354
:1028500095E16D4B1B6803F00063002BF0D17B68A2
:102860001B6803F00103002B21D07B685B6B002BFE
:102870001DD1654BD3F884301B0C03F003033B617F
:10288000614BD3F884301B0E03F00F03FB607B68B1
:102890005B689A013B691B041A43FB681B061A43D9
:1028A0007B689B681B0758491343C1F884307B68D9
:1028B0001B6803F40023002B04D07B68DB6BB3F5AB
:1028C000801F0AD07B681B6803F48013002B2ED076
:1028D0007B681B6CB3F5800F29D14B4BD3F8843048
:1028E0001B0C03F003033B61474BD3F884301B0FF1
:1028F00003F00703FB607B685B689A013B691B047C
:102900001A437B68DB681B061A43FB681B073E49BA
:102910001343C1F884303C4BD3F88C3023F01F02B2
:102920007B685B6A013B38491343C1F88C307B6894
:102930001B6803F08073002B1DD0334BD3F8843019
:102940001B0E03F00F033B612F4BD3F884301B0F9A
:1029500003F00703FB607B685B689A017B681B6977
:102960001B041A433B691B061A43FB681B072649D5
:102970001343C1F884307B681B6803F00073002B9D
:1029800011D07B685B689A017B681B691B041A4342
:102990007B68DB681B061A437B689B681B071A4928
:1029A0001343C1F88430184B1B68174A43F0806307
:1029B0001360FEF7E1FC786108E0FEF7DDFC0246FB
:1029C0007B69D31A642B01D90323D8E00E4B1B6813
:1029D00003F00063002BF0D0BB69012B40F0CE80E8
:1029E000094B1B68084A23F080531360FEF7C4FCB0
:1029F00078610BE0FEF7C0FC02467B69D31A642BBA
:102A000004D90323BBE000BF003802405E4B1B68C3
:102A100003F00053B3F1005FECD07B681B6803F454
:102A20000023002B03D07B68DB6B002B09D07B6875
:102A30001B6803F48013002B2ED07B681B6C002BCB
:102A40002AD1514BD3F888301B0C03F003033B61B0
:102A50004D4BD3F888301B0F03F00703FB607B68F6
:102A60005B699A013B691B041A437B689B691B06DF
:102A70001A43FB681B0744491343C1F88830424B93
:102A8000D3F88C3023F4F8527B689B6A013B1B021D
:102A90003D491343C1F88C307B681B6803F4001375
:102AA000002B22D07B68DB6FB3F1006F1DD1364B5A
:102AB000D3F888301B0E03F00F033B61324BD3F881
:102AC00088301B0F03F00703FB607B685B699A018A
:102AD0007B681B6A1B041A433B691B061A43FB688D
:102AE0001B0729491343C1F888307B681B6803F032
:102AF0000803002B28D0244BD3F888301B0E03F09A
:102B00000F033B61204BD3F888301B0C03F0030309
:102B1000FB607B685B699A01FB681B041A433B6995
:102B20001B061A437B68DB691B0717491343C1F86F
:102B30008830154BD3F88C3023F440327B68DB6A45
:102B400011491343C1F88C300F4B1B680E4A43F0F8
:102B500080531360FEF710FC786108E0FEF70CFC70
:102B600002467B69D31A642B01D9032307E0064B85
:102B70001B6803F00053B3F1005FEFD10023184648
:102B80002037BD4680BD00BF0038024080B582B00E
:102B900000AF78607B68002B01D1012349E07B689E
:102BA00093F83D30DBB2002B06D17B68002283F81E
:102BB0003C207868FEF7D0FA7B68022283F83D203B
:102BC0007B681A687B6804331946104600F0C0FA27
:102BD0007B68012283F848207B68012283F83E202D
:102BE0007B68012283F83F207B68012283F8402024
:102BF0007B68012283F841207B68012283F8422010
:102C00007B68012283F843207B68012283F84420FB
:102C10007B68012283F845207B68012283F84620E7
:102C20007B68012283F847207B68012283F83D20DE
:102C3000002318460837BD4680BD000080B485B02B
:102C400000AF78607B6893F83D30DBB2012B01D098
:102C5000012354E07B68022283F83D207B681B68D7
:102C6000DA687B681B6842F00102DA607B681B68E7
:102C7000264A934222D07B681B68B3F1804F1DD057
:102C80007B681B68224A934218D07B681B68214AE4
:102C9000934213D07B681B681F4A93420ED07B6817
:102CA0001B681E4A934209D07B681B681C4A9342EA
:102CB00004D07B681B681B4A934215D17B681B6854
:102CC0009A68194B1340FB60FB68062B15D0FB6814
:102CD000B3F5803F11D07B681B681A687B681B685E
:102CE00042F001021A6008E07B681B681A687B6882
:102CF0001B6842F001021A6000E000BF0023184682
:102D00001437BD465DF8047B704700BF00000140EA
:102D10000004004000080040000C00400004014096
:102D200000400140001800400700010080B582B05B
:102D300000AF78607B681B681B6903F00203022BFD
:102D400022D17B681B68DB6803F00203022B1BD1D6
:102D50007B681B686FF002021A617B6801221A7798
:102D60007B681B689B6903F00303002B03D0786822
:102D700000F0D0F905E0786800F0C2F9786800F05A
:102D8000D3F97B6800221A777B681B681B6903F004
:102D90000403042B22D17B681B68DB6803F0040367
:102DA000042B1BD17B681B686FF004021A617B68DF
:102DB00002221A777B681B689B6903F44073002B1F
:102DC00003D0786800F0A6F905E0786800F098F97B
:102DD000786800F0A9F97B6800221A777B681B6885
:102DE0001B6903F00803082B22D17B681B68DB6892
:102DF00003F00803082B1BD17B681B686FF00802E7
:102E00001A617B6804221A777B681B68DB6903F010
:102E10000303002B03D0786800F07CF905E07868A4
:102E200000F06EF9786800F07FF97B6800221A776D
:102E30007B681B681B6903F01003102B22D17B6891
:102E40001B68DB6803F01003102B1BD17B681B6829
:102E50006FF010021A617B6808221A777B681B6882
:102E6000DB6903F44073002B03D0786800F052F95B
:102E700005E0786800F044F9786800F055F97B685F
:102E800000221A777B681B681B6903F00103012B82
:102E90000ED17B681B68DB6803F00103012B07D1AF
:102EA0007B681B686FF001021A617868FDF752FFBA
:102EB0007B681B681B6903F08003802B0ED17B6845
:102EC0001B68DB6803F08003802B07D17B681B68DD
:102ED0006FF080021A61786800F00CFB7B681B6859
:102EE0001B6903F48073B3F5807F0ED17B681B6888
:102EF000DB6803F08003802B07D17B681B686FF4CD
:102F000080721A61786800F0FFFA7B681B681B69A1
:102F100003F04003402B0ED17B681B68DB6803F095
:102F20004003402B07D17B681B686FF040021A6199
:102F3000786800F003F97B681B681B6903F02003C5
:102F4000202B0ED17B681B68DB6803F02003202B4D
:102F500007D17B681B686FF020021A61786800F067
:102F6000BFFA00BF0837BD4680BD000080B584B001
:102F700000AF786039600023FB737B6893F83C30C6
:102F8000012B01D10223B4E07B68012283F83C20AD
:102F90007B68022283F83D207B681B689B68BB60CE
:102FA000BA68564B1340BB60BB6823F47F43BB60D9
:102FB0007B681B68BA689A603B681B68B3F5005F62
:102FC0003ED0B3F5005F00F28780B3F5805F00F07C
:102FD0008680B3F5805F7FD8702B1AD0702B7BD89A
:102FE000602B50D0602B77D8502B3CD0502B73D80F
:102FF000402B58D0402B6FD8302B64D0302B6BD85F
:10300000202B60D0202B67D8002B5CD0102B5AD0FF
:1030100062E07B6818683B6899683B685A683B685F
:10302000DB6800F0AFF97B681B689B68BB60BB681E
:1030300043F07703BB607B681B68BA689A604FE017
:103040007B6818683B6899683B685A683B68DB682E
:1030500000F098F97B681B689A687B681B6842F4EB
:1030600080429A603CE07B6818683B6859683B681E
:10307000DB681A4600F00CF97B681B685021184683
:1030800000F065F92CE07B6818683B6859683B687C
:10309000DB681A4600F02BF97B681B686021184634
:1030A00000F055F91CE07B6818683B6859683B687C
:1030B000DB681A4600F0ECF87B681B684021184674
:1030C00000F045F90CE07B681A683B681B681946FC
:1030D000104600F03CF903E00123FB7300E000BF61
:1030E0007B68012283F83D207B68002283F83C2026
:1030F000FB7B18461037BD4680BD00BF88FFFEFF32
:1031000080B483B000AF786000BF0C37BD465DF877
:10311000047B704780B483B000AF786000BF0C3789
:10312000BD465DF8047B704780B483B000AF786023
:1031300000BF0C37BD465DF8047B704780B483B098
:1031400000AF786000BF0C37BD465DF8047B704768
:1031500080B485B000AF786039607B681B68FB6025
:103160007B68404A934213D07B68B3F1804F0FD005
:103170007B683D4A93420BD07B683C4A934207D020
:103180007B683B4A934203D07B683A4A934208D11A
:10319000FB6823F07003FB603B685B68FA681343CD
:1031A000FB607B682F4A93422BD07B68B3F1804F42
:1031B00027D07B682C4A934223D07B682B4A9342CA
:1031C0001FD07B682A4A93421BD07B68294A9342CE
:1031D00017D07B68284A934213D07B68274A9342D2
:1031E0000FD07B68264A93420BD07B68254A9342D6
:1031F00007D07B68244A934203D07B68234A9342DA
:1032000008D1FB6823F44073FB603B68DB68FA6815
:103210001343FB60FB6823F080023B685B69134348
:10322000FB607B68FA681A603B689A687B68DA62C0
:103230003B681A687B689A627B680A4A934203D0AB
:103240007B680C4A934203D13B681A697B681A6316
:103250007B6801225A6100BF1437BD465DF8047BCC
:10326000704700BF0000014000040040000800401B
:10327000000C0040000401400040014000440140B7
:103280000048014000180040001C004000200040A1
:1032900080B487B000AFF860B9607A60FB681B6AE1
:1032A0007B61FB681B6A23F00102FB681A62FB6802
:1032B0009B693B613B6923F0F0033B617B681B0129
:1032C0003A6913433B617B6923F00A037B617A69A6
:1032D000BB6813437B61FB683A699A61FB687A6952
:1032E0001A6200BF1C37BD465DF8047B704780B48E
:1032F00087B000AFF860B9607A60FB681B6A23F0A2
:103300001002FB681A62FB689B697B61FB681B6AA1
:103310003B617B6923F470437B617B681B037A69A3
:1033200013437B613B6923F0A0033B61BB681B0136
:103330003A6913433B61FB687A699A61FB683A69B1
:103340001A6200BF1C37BD465DF8047B704780B42D
:1033500085B000AF786039607B689B68FB60FB6874
:1033600023F07003FB603A68FB68134343F00703E4
:10337000FB607B68FA689A6000BF1437BD465DF851
:10338000047B704780B487B000AFF860B9607A60A2
:103390003B60FB689B687B617B6923F47F437B61B7
:1033A0003B681A027B681A43BB6813437A6913436C
:1033B0007B61FB687A699A6000BF1C37BD465DF887
:1033C000047B704780B485B000AF786039607B685B
:1033D00093F83C30012B01D102236DE07B68012280
:1033E00083F83C207B68022283F83D207B681B68C1
:1033F0005B68FB607B681B689B68BB607B681B68C5
:10340000304A934204D07B681B682F4A934208D10C
:10341000FB6823F47003FB603B685B68FA68134346
:10342000FB60FB6823F07003FB603B681B68FA6875
:103430001343FB607B681B68FA685A607B681B68F3
:10344000204A934222D07B681B68B3F1804F1DD085
:103450007B681B681D4A934218D07B681B681C4A16
:10346000934213D07B681B681A4A93420ED07B6844
:103470001B68154A934209D07B681B68164A934221
:1034800004D07B681B68154A93420CD1BB6823F0BB
:103490008003BB603B689B68BA681343BB607B6872
:1034A0001B68BA689A607B68012283F83D207B68BC
:1034B000002283F83C20002318461437BD465DF8EF
:1034C000047B7047000001400004014000040040FC
:1034D00000080040000C004000400140001800407F
:1034E00080B483B000AF786000BF0C37BD465DF894
:1034F000047B704780B483B000AF786000BF0C37A6
:10350000BD465DF8047B704780B483B000AF78603F
:1035100000BF0C37BD465DF8047B704780B582B0B4
:1035200000AF78607B68002B01D1012340E07B680D
:10353000DB6F002B06D17B68002283F87820786847
:10354000FDF772FE7B682422DA677B681B681A68C5
:103550007B681B6822F001021A60786800F0B0F8FE
:103560000346012B01D1012322E07B685B6A002B1B
:1035700002D0786800F008FB7B681B685A687B689B
:103580001B6822F490425A607B681B689A687B68CB
:103590001B6822F02A029A607B681B681A687B68A5
:1035A0001B6842F001021A60786800F08FFB034646
:1035B00018460837BD4680BD80B58AB002AFF860B6
:1035C000B9603B601346FB80FB68DB6F202B71D139
:1035D000BB68002B02D0FB88002B01D101236AE0DD
:1035E000FB680022C3F88420FB682122DA67FDF71C
:1035F000C3FE7861FB68FA88A3F85020FB68FA885C
:10360000A3F85220FB689B68B3F5805F08D1FB6884
:103610001B69002B04D10023FB61BB68BB6103E085
:10362000BB68FB610023BB612CE03B6800937B69B6
:1036300000228021F86800F096FB0346002B01D0A1
:10364000032338E0FB69002B0BD1BB691B881A46AA
:10365000FB681B68C2F308029A62BB690233BB6154
:1036600007E0FB691A78FB681B689A62FB69013303
:10367000FB61FB68B3F852309BB2013B9AB2FB6826
:10368000A3F85220FB68B3F852309BB2002BCCD188
:103690003B6800937B6900224021F86800F063FBDF
:1036A0000346002B01D0032305E0FB682022DA67E4
:1036B000002300E0022318462037BD4680BD0000ED
:1036C00080B588B000AF78600023BB777B689A68CC
:1036D0007B681B691A437B685B691A437B68DB69FB
:1036E00013437B617B681B681A68A64B13407A689A
:1036F000126879690B4313607B681B685B6823F46D
:1037000040517B68DA687B681B680A435A607B68B3
:103710009B697B617B681B6A7A6913437B617B6869
:103720001B689B6823F430617B681B687A690A43D5
:103730009A607B681B68944A934220D1934BD3F8DC
:10374000903003F00303032B16D801A252F823F0A4
:10375000613700086D3700086737000873370008C5
:103760000123FB7750E10223FB774DE10423FB7734
:103770004AE10823FB7747E11023FB7744E17B68AC
:103780001B68834A934232D1804BD3F8903003F0C8
:103790000C030C2B28D801A252F823F0D1370008D3
:1037A000E9370008E9370008E9370008DD37000885
:1037B000E9370008E9370008E9370008D73700087B
:1037C000E9370008E9370008E9370008E33700085F
:1037D0000023FB7718E10223FB7715E10423FB7735
:1037E00012E10823FB770FE11023FB770CE17B68E4
:1037F0001B68684A934220D1644BD3F8903003F0A1
:103800003003302B13D0302B14D8202B09D0202B91
:1038100010D8002B02D0102B06D00BE00023FB7732
:10382000F2E00223FB77EFE00423FB77ECE00823D0
:10383000FB77E9E01023FB77E6E07B681B68564ADC
:10384000934220D1514BD3F8903003F0C003C02BEA
:1038500013D0C02B14D8802B09D0802B10D8002B6C
:1038600002D0402B06D00BE00023FB77CCE00223F4
:10387000FB77C9E00423FB77C6E00823FB77C3E0AE
:103880001023FB77C0E07B681B68444A934225D134
:103890003E4BD3F8903003F44073B3F5407F17D01C
:1038A000B3F5407F17D8B3F5007F0BD0B3F5007F99
:1038B00011D8002B03D0B3F5807F06D00BE0002396
:1038C000FB77A1E00223FB779EE00423FB779BE0DC
:1038D0000823FB7798E01023FB7795E07B681B6853
:1038E0002F4A934225D1294BD3F8903003F44063FB
:1038F000B3F5406F17D0B3F5406F17D8B3F5006F2D
:103900000BD0B3F5006F11D8002B03D0B3F5806F47
:1039100006D00BE00123FB7776E00223FB7773E010
:103920000423FB7770E00823FB776DE01023FB771F
:103930006AE07B681B681B4A934238D1134BD3F86B
:10394000903003F44053B3F5405F17D0B3F5405FB8
:103950002AD8B3F5005F0BD0B3F5005F24D8002B55
:1039600003D0B3F5805F06D01EE00023FB774BE069
:103970000223FB7748E00423FB7745E00823FB772D
:1039800042E000BFF369FFEF001001400038024041
:103990000044004000480040004C004000500040FF
:1039A00000140140007800401023FB772CE07B6876
:1039B0001B68724A934225D1714BD3F8903003F4BF
:1039C0004043B3F5404F17D0B3F5404F17D8B3F588
:1039D000004F0BD0B3F5004F11D8002B03D0B3F537
:1039E000804F06D00BE00023FB770DE00223FB772E
:1039F0000AE00423FB7707E00823FB7704E01023A9
:103A0000FB7701E01023FB777B68DB69B3F5004FA0
:103A10005BD1FB7F082B28D801A252F823F000BF0E
:103A2000453A00084D3A0008553A00086B3A00083C
:103A30005B3A00086B3A00086B3A00086B3A0008E2
:103A4000633A0008FEF720FCB86113E0FEF730FC93
:103A5000B8610FE04B4BBB610CE0FEF743FBB86174
:103A600008E04FF40043BB6104E00023BB61012385
:103A7000BB7700BFBB69002B74D0BB695A007B6861
:103A80005B685B081A447B685B68B2FBF3F33B61DD
:103A90003B690F2B16D93B69B3F5803F12D23B69C6
:103AA0009BB223F00F03FB813B695B089BB203F0E1
:103AB00007039AB2FB891343FB817B681B68FA8971
:103AC000DA604FE00123BB774CE0FB7F082B28D85E
:103AD00001A252F823F000BFFD3A0008053B0008A0
:103AE0000D3B0008233B0008133B0008233B000864
:103AF000233B0008233B00081B3B0008FEF7C4FBE8
:103B0000B86113E0FEF7D4FBB8610FE01D4BBB6159
:103B10000CE0FEF7E7FAB86108E04FF40043BB6140
:103B200004E00023BB610123BB7700BFBB69002B0E
:103B300018D07B685B685A08BB691A447B685B686D
:103B4000B2FBF3F33B613B690F2B09D93B69B3F53A
:103B5000803F05D23B699AB27B681B68DA6001E05E
:103B60000123BB777B6800229A667B680022DA66B5
:103B7000BB7F18462037BD4680BD00BF007C00409B
:103B8000003802400024F40080B483B000AF7860B5
:103B90007B685B6A03F00103002B0AD07B681B681B
:103BA0005B6823F400317B689A6A7B681B680A4370
:103BB0005A607B685B6A03F00203002B0AD07B68C3
:103BC0001B685B6823F480317B68DA6A7B681B685A
:103BD0000A435A607B685B6A03F00403002B0AD037
:103BE0007B681B685B6823F480217B681A6B7B68A9
:103BF0001B680A435A607B685B6A03F00803002B6A
:103C00000AD07B681B685B6823F400417B685A6BB1
:103C10007B681B680A435A607B685B6A03F0100389
:103C2000002B0AD07B681B689B6823F480517B685B
:103C30009A6B7B681B680A439A607B685B6A03F037
:103C40002003002B0AD07B681B689B6823F400517B
:103C50007B68DA6B7B681B680A439A607B685B6AE7
:103C600003F04003002B1AD07B681B685B6823F4C9
:103C700080117B681A6C7B681B680A435A607B68FA
:103C80001B6CB3F5801F0AD17B681B685B6823F44B
:103C9000C0017B685A6C7B681B680A435A607B686A
:103CA0005B6A03F08003002B0AD07B681B685B68AB
:103CB00023F400217B689A6C7B681B680A435A6076
:103CC00000BF0C37BD465DF8047B704780B586B0F9
:103CD00002AF78607B680022C3F88420FDF74CFBBC
:103CE000F8607B681B681B6803F00803082B0ED183
:103CF0006FF07E430093FB6800224FF40011786858
:103D000000F031F80346002B01D0032327E07B6845
:103D10001B681B6803F00403042B0ED16FF07E4375
:103D20000093FB6800224FF48001786800F01BF8D4
:103D30000346002B01D0032311E07B682022DA67C1
:103D40007B682022C3F880207B6800221A667B688B
:103D500000225A667B68002283F8782000231846E8
:103D60001037BD4680BD80B59CB000AFF860B9602B
:103D70003B601346FB71A7E0BB6FB3F1FF3F00F060
:103D8000A380FDF7F9FA02463B68D31ABA6F9A424C
:103D900002D3BB6F002B3FD1FB681B683B653B6DBB
:103DA00053E8003FFB64FB6C23F4D0737B66FB6835
:103DB0001B681A467B6EFB65BA65B96DFA6D41E802
:103DC00000237B657B6D002BE6D1FB681B68083305
:103DD000FB63FB6B53E8003FBB63BB6B23F001034A
:103DE0003B66FB681B6808333A6EBA647B64796C87
:103DF000BA6C41E800233B643B6C002BE5D1FB68C7
:103E00002022DA67FB682022C3F88020FB680022AA
:103E100083F87820032368E0FB681B681B6803F0C5
:103E20000403002B50D0FB681B68DB6903F40063BC
:103E3000B3F5006F48D1FB681B684FF400621A624B
:103E4000FB681B68BB62BB6A53E8003F7B627B6A0E
:103E500023F4D073FB66FB681B681A46FB6E7B631A
:103E60003A63396B7A6B41E80023FB62FB6A002BF3
:103E7000E6D1FB681B6808337B617B6953E8003F30
:103E80003B613B6923F00103BB66FB681B68083399
:103E9000BA6E3A62FB61F9693A6A41E80023BB6194
:103EA000BB69002BE5D1FB682022DA67FB68202282
:103EB000C3F88020FB682022C3F88420FB6800221E
:103EC00083F87820032310E0FB681B68DA69BB687D
:103ED0001340BA689A420CBF01230023DBB21A4692
:103EE000FB799A423FF448AF002318467037BD462D
:103EF00080BD000080B582B000AF0023FB71FCF7ED
:103F00000FFE124B00221A600023FB7115E0FB79B3
:103F10000F4A0021D154FB790E4A022122F81310D6
:103F2000FB790D4AC82122F81310FB790B4A0F21A7
:103F300022F81310FB790133FB71FB79022BE6D9D0
:103F400000BF00BF0837BD4680BD00BF94030020FE
:103F5000980300209C030020A4030020AC03002051
:103F600080B483B000AF7860064B1B68002B02D191
:103F7000044A7B68136000BF0C37BD465DF8047BC4
:103F8000704700BF9403002090B583B000AF0023BA
:103F9000FB71EBE07A4B00221A70FB79794A52F8F8
:103FA0002330FC79984703461A4604F108033B4442
:103FB00003F8042CFB79744AD35C032B00F2C58010
:103FC00001A252F823F000BFD93F0008F33F0008D8
:103FD00059400008CF400008FB7908333B4413F8F0
:103FE000043C002B00F0AA80FB79674A0121D154E0
:103FF000A4E0FB7908333B4413F8043C002B21D0A8
:10400000FB79624A32F81320013A91B25F4A22F8F2
:1040100013105E4A32F81330002B40F09180FB7988
:104020005A4A022122F81310FB79574A0221D1542F
:10403000FB791A4692001344DBB20133DAB2504BDB
:104040001A707DE0FB79514A022122F81310FB79A6
:104050004D4A0021D15473E0FB7908333B4413F8F7
:10406000043C002B20D0FB79494A32F81320013A56
:1040700091B2474A22F81310454A32F81330002B08
:1040800060D1FB79424AC82122F81310FB793E4ADD
:104090000321D154FB791A4692001344DBB2033357
:1040A000DAB2374B1A704DE0FB79394AC82122F851
:1040B0001310FB79344A0021D154FB791A4692003F
:1040C0001344DBB20233DAB22D4B1A703AE0FB79BB
:1040D00008333B4413F8043C002B1CD0FB792D4AD9
:1040E00032F81320013A91B22A4A22F81310294AD1
:1040F00032F81330002B27D1FB79264A0F2122F802
:104100001310FB791A4692001344DBB20433DAB27F
:104110001B4B1A7018E0FB791B4A0021D154FB7924
:104120001C4A0F2122F81310FB790133DBB21A4627
:1041300092001344DAB2124B1A7005E000BF04E09B
:1041400000BF02E000BF00E000BF0D4B1B78002B5A
:1041500009D0114B1B68002B05D00F4B1B68084A78
:10416000127810469847FB790133FB71FB79022BDB
:104170007FF610AF00BF00BF0C37BD4690BD00BF3B
:10418000B20300200C000020980300209C030020B4
:10419000A4030020AC0300209403002080B500AFEE
:1041A00008210548FDF782FB0346002B0CBF0123C5
:1041B0000023DBB2184680BD001C024080B500AF72
:1041C00004210548FDF772FB0346002B0CBF0123B9
:1041D0000023DBB2184680BD001C024080B500AF52
:1041E0004FF400510548FDF761FB0346002B0CBF5F
:1041F00001230023DBB2184680BD00BF0008024047
:1042000080B582B000AF00F063F90223C8221A49DA
:10421000002000F051FC0023FB7125E0FB79174AD8
:104220000021D154FB79164A164942F82310FB7934
:10423000134A52F82320FB795188134A22F81310AD
:10424000FB791B01114A9818FB791B010F4A134493
:10425000191DFB791B0108330C4A13441A4600F060
:104260000DFBFB790133FB71FB79012BD6D900BF24
:1042700000BF0837BD4680BDE1440008E0030020D0
:10428000D803002020000020D4030020B403002025
:1042900080B584B002AF0023FB710023FB71B2E054
:1042A000FB791B015C4A9818FB791B015A4A13449D
:1042B000191DFB791B010833574A1A44052300F0E6
:1042C00093FB0346002B00F09A80FB79534AD35CA2
:1042D000002B40F09480FB791B014F4A9818FB7922
:1042E0001B014D4A1344191DFB791B0108334A4A2F
:1042F0001A44BB1D0093052300F02EFBFB79474AAF
:104300000121D154BB79062B7AD801A252F823F0AF
:104310002D4300084B430008694300088743000809
:10432000A5430008C3430008E1430008FB793C4A69
:104330003C4942F82310FB79394A52F82320FB7993
:104340005188394A22F813105AE0FB79344A374928
:1043500042F82310FB79324A52F82320FB79518826
:10436000314A22F813104BE0FB792D4A304942F8CC
:104370002310FB792A4A52F82320FB7951882A4AD4
:1043800022F813103CE0FB79254A2A4942F8231011
:10439000FB79234A52F82320FB795188224A22F8DC
:1043A00013102DE0FB791E4A234942F82310FB79B4
:1043B0001B4A52F82320FB7951881B4A22F813101C
:1043C0001EE0FB79164A1D4942F82310FB79144A76
:1043D00052F82320FB795188134A22F813100FE07A
:1043E000FB790F4A164942F82310FB790C4A52F820
:1043F0002320FB7951880C4A22F8131000E000BFFB
:10440000FB790133FB71FB79012B7FF649AF00BFCC
:1044100000BF0837BD4680BDB4030020E003002084
:10442000D803002020000020D40300202800002012
:10443000300000203C0000204800002064000020E4
:104440007000002080B586B002AF0346FB710B46BA
:10445000BB7113467B71FB79012B30D8BB79FB73A1
:104460007B79002B14D0FB791B01174A9818FB7934
:104470001B01154A1344191DFB791B010833124A0D
:1044800013441A4600F0FAF9FB79104A0021D1547E
:10449000FB791B010C4A9818FB791B010A4A13444B
:1044A000191DFB791B010833074A1A4401230193A4
:1044B00007F10F030093052300F0F2F900E000BFBD
:1044C0001037BD4680BD00BFB4030020E0030020CC
:1044D00080B400AF00BFBD465DF8047B70470000AC
:1044E00080B582B000AF0023FB715EE0FB79344AF7
:1044F00032F81330002B08D0FB79314A32F8132000
:10450000013A91B22E4A22F81310FB792C4A32F864
:104510001330002B3AD1FB792A4A52F82330043366
:104520001B884FF6FE72934204D1FB79264A002184
:10453000D1542BE0FB79234A52F82320FB79043233
:10454000204941F82320FB791E4A52F823301B886A
:104550004FF6FF72934210D1FB791A4A52F823109A
:10456000FB79184A52F8233002331B889B005A42C9
:10457000FB790A44134941F82320FB79114A52F888
:104580002320FB7951880E4A22F81310FB790F4A39
:1045900052F82330FA790B4951F822201288D2B20E
:1045A00010469847FB790133FB71FB79012B9DD9AC
:1045B0000221002000F0BCFA00BF0837BD4680BDD4
:1045C000D4030020D8030020E003002018000020BE
:1045D00080B582B000AF0346FB71FB79002B05D09C
:1045E000002201210648FDF779F904E001220121AA
:1045F0000348FDF773F900BF0837BD4680BD00BF13
:104600000004024080B582B000AF0346FB71FB7925
:10461000002B05D0002202210648FDF75FF904E0D7
:10462000012202210348FDF759F900BF0837BD46B2
:1046300080BD00BF0004024080B483B000AF78604A
:10464000064B1B68002B02D1044A7B68136000BF35
:104650000C37BD465DF8047B704700BFE4030020C3
:1046600080B483B000AF0023FB7129E0FA791949C7
:1046700013465B0013449B000B4400221A60FA7936
:10468000144913465B0013449B000B44043300227F
:104690001A70FA790F4913465B0013449B000B44D0
:1046A000063300221A80FA790A4913465B00134444
:1046B0009B000B44083300221A80FB790133FB7105
:1046C000FB79022BD2D900BF00BF0C37BD465DF885
:1046D000047B7047E803002080B483B000AF3960EA
:1046E00011461A460346FB710B46BB801346BB714D
:1046F000FA791B4913465B0013449B000B441B686B
:10470000002B26D1FA79164913465B0013449B000F
:104710000B443A681A60FA79114913465B00134456
:104720009B000B44043300221A70FA790C4913469B
:104730005B0013449B000B440633BA881A80FA7955
:10474000074913465B0013449B000B4408330022C7
:104750001A8000BF0C37BD465DF8047B704700BF70
:10476000E803002080B483B000AF0023FB714BE06E
:10477000FA792A4913465B0013449B000B441B68DB
:10478000002B3ED0FA79254913465B0013449B0069
:104790000B4408331B889BB2013398B21F49134660
:1047A0005B0013449B000B44083302461A80FA79DD
:1047B0001A4913465B0013449B000B4408331B88C3
:1047C00099B2FA79154813465B0013449B000344E1
:1047D00006331B889BB2994213D3FA790F491346CB
:1047E0005B0013449B000B44083300221A80FA79C3
:1047F0000A4913465B0013449B000B440433012217
:104800001A70FB790133FB71FB79022BB0D900BF21
:1048100000BF0C37BD465DF8047B7047E8030020FD
:1048200080B582B000AF0023FB7121E0FA79124914
:1048300013465B0013449B000B4404331B78DBB22C
:10484000012B12D1FA790C4913465B0013449B00EB
:104850000B44043300221A70FA79074913465B00AF
:1048600013449B000B441B689847FB790133FB7191
:10487000FB79022BDAD9D6E7E803002080B485B0B3
:1048800000AFF860B9607A60FB687A681A60BB684C
:104890007A681A6000BF1437BD465DF8047B704724
:1048A00080B586B000AFF860B9607A60FB70002315
:1048B000BB75284B1B68002B06D0264B1B6807F1E5
:1048C00016021146002098470023FB752EE0BB68B6
:1048D0001B683A6A12781A70BB681B685A1CBB685E
:1048E0001A60BB681A68FB7879680B449A4202D157
:1048F000BB687A681A60BB681A68FB681B689A42D2
:104900000ED1FB681B685A1CFB681A60FB681A68AA
:10491000FB7879680B449A4202D1FB687A681A6086
:10492000FB7D0133FB753B6A01333B62FA7D97F8EF
:1049300024309A42CBD3074B1B68002B06D0054B83
:104940001B6807F1160211460120984700BF18376F
:10495000BD4680BDE403002080B586B000AFF8609E
:10496000B9607A60FB700023FB750023BB751D4B9B
:104970001B68002B06D01B4B1B6807F11602114663
:10498000002098473B6A00221A70FB681A68BB68CF
:104990001B689A4215D0FB681B681A783B6A1A702C
:1049A0000123FB75FB681B685A1CFB681A60FB68D7
:1049B0001A68FB7879680B449A4202D1FB687A68DE
:1049C0001A60084B1B68002B06D0064B1B6807F1CA
:1049D0001602114601209847FB7D18461837BD4640
:1049E00080BD00BFE403002080B485B000AFF86054
:1049F000B9607A60FB70BB681A68FB681B689A42F2
:104A000006D9BB681A68FB681B68D31A9BB20FE013
:104A1000BB681A68FB681B689A4208D9BB681A68A9
:104A2000FB781A44FB681B68D31A9BB200E0002392
:104A300018461437BD465DF8047B704780B483B0D8
:104A400000AF0023FB710023FB7129E0FA791949BB
:104A500013465B0013449B000B4401221A70FA7941
:104A6000144913465B0013449B000B44023300229D
:104A70001A80FA790F4913465B0013449B000B44DC
:104A8000043300221A80FA790A4913465B00134462
:104A90009B000B44083300221A60FB790133FB7141
:104AA000FB79002BD2D000BF00BF0C37BD465DF8AC
:104AB000047B70470C04002080B483B000AF3960E1
:104AC00011461A460346FB710B46BB801346BB7169
:104AD000FA79164913465B0013449B000B44BA79DC
:104AE0001A70FA79114913465B0013449B000B447A
:104AF000023300221A80FA790C4913465B001344F2
:104B00009B000B440433BA881A80FA79074913468C
:104B10005B0013449B000B4408333A681A6000BFE3
:104B20000C37BD465DF8047B704700BF0C040020C5
:104B300080B483B000AF03460A46FB711346BB71D5
:104B4000FA79134913465B0013449B000B44083366
:104B50001B68002B14D0FA790D4913465B001344EF
:104B60009B000B44BA791A70FA79094913465B0025
:104B700013449B000B44023300221A80002300E000
:104B8000012318460C37BD465DF8047B704700BF13
:104B90000C04002080B582B000AF0023FB7100231D
:104BA000FB716AE0FA79394913465B0013449B00B4
:104BB0000B4408331B68002B5CD0FA793349134649
:104BC0005B0013449B000B441B78DBB2022B51D1DA
:104BD000FA792E4913465B0013449B000B440233C1
:104BE0001B889BB2013398B2284913465B001344DB
:104BF0009B000B44023302461A80FA79234913467C
:104C00005B0013449B000B4402331B8899B2FA7972
:104C10001E4813465B0013449B00034404331B8867
:104C20009BB2994226D3FA79184913465B00134484
:104C30009B000B4401221A70F979FA7913480B464C
:104C40005B000B449B00034402331B8898B20F495E
:104C500013465B0013449B000B44023302461A8048
:104C6000FA790A4913465B0013449B000B4408334E
:104C70001B689847FB790133FB71FB79002B91D0BE
:104C800000BF00BF0837BD4680BD00BF0C04002038
:104C900080B500AF044B1B686FF001021A61FFF78B
:104CA00079FF00BF80BD00BFBC02002080B500AF0F
:104CB0000248FFF755F900BF80BD00BFCF4C000888
:104CC00080B400AF00BFBD465DF8047B704780B57F
:104CD00082B000AF0346FB71FB79012B05D0FB7955
:104CE000062B02D0FB790B2B05D1012201210020DC
:104CF000FFF7A8FB1DE0FB79022B05D0FB79072B02
:104D000002D0FB790C2B05D1012206210020FFF7F0
:104D100099FB0EE0FB79032B05D0FB79082B02D021
:104D2000FB790D2B05D1012200210020FFF78AFB22
:104D3000FFE700BF0837BD4680BD0000014B186883
:104D4000704700BF7C00002070B50D4D0D4C641BFA
:104D5000A4100026A64209D10B4D0C4C04F088FB90
:104D6000641BA4100026A64205D170BD55F8043B73
:104D700098470136EEE755F8043B98470136F2E7CD
:104D80004C9900084C9900084C990008509900086B
:104D900002440346934200D1704703F8011BF9E730
:104DA000F0B52DED028BB0EE408B85B017460D9D12
:104DB0000C9E18EE902A25F02005002AB6BF2D2261
:104DC0000022B1EE408B462D0C461A7004D0452DC2
:104DD00000D10134022100E0032103AB019302ABB7
:104DE000009322463346B0EE480B01F02DFD472DCF
:104DF00001D1FB071AD5462D00EB04020CD1037834
:104E0000302B07D1B5EE408BF1EE10FA1CBFC4F188
:104E10000104346033681A44B5EE408BF1EE10FAA9
:104E200008BF03923021039B934207D3039B0E9A42
:104E30001B1A136005B0BDEC028BF0BD5C1C039423
:104E40001970F0E7F7B503460029B8BF494203F8E7
:104E5000022BB4BF2D222B22092942702ADD0DF12D
:104E60000704A4460A27A6460A4691FBF7F607FB65
:104E700016153035632A04F1FF340EF8015C314613
:104E8000F1DC3031AEF1020504F8011C441C294666
:104E900061450AD30DF10902A2EB0E02654588BFF8
:104EA00000221344181A03B0F0BD11F8012B04F8C6
:104EB000012FEDE7302330318370C170031DF1E71E
:104EC0002DE9F04F8BB00C46DDF8508016461F469A
:104ED000054602F097FDD0F800B05846FBF7B0F950
:104EE00000230893D8F8003094F81890226807330C
:104EF00023F0070303F10801C8F800108246D3E944
:104F00000001C4E912019FED987B94ED120BB0EE05
:104F1000C06BB4EE476BF1EE10FA24DDB5EEC00BBA
:104F2000F1EE10FA02D52D2384F84330904B9148CE
:104F3000B9F1470F94BF984680460323236122F0BE
:104F400004020023226004930097334609AA2146F5
:104F5000284600F0D3F9013040F08A804FF0FF304E
:104F60000BB0BDE8F08FB4EE400BF1EE10FA09D7AC
:104F700010EE903A002BBCBF2D2384F843307E48BE
:104F80007E4BD5E7636809F0DF010491591C3CD1E1
:104F9000062363600023039308ABCDE9019342F439
:104FA000806207AB6168009322600DF11B03284605
:104FB000FFF7F6FE049B0799472B804608D1C81CD3
:104FC00002DB6368994241DDA9F102095FFA89F9C0
:104FD000B9F1650F20D801394A4604F15000079114
:104FE000FFF730FF089A04901318012A236102DCAE
:104FF0002268D20701D5013323619DF81B30002BB5
:10500000A2D02D2384F843309EE704994729C1D1CB
:10501000002BBFD10123BCE7B9F1660F18D10029DD
:1050200063680BDD216113B92268D00702D5013313
:105030000B4423610023A1650493DEE713B92268C2
:10504000D20701D50233F4E70123F2E74FF06709F5
:10505000089B994205DB23682161D807EAD54B1CE0
:10506000E7E70029D4BFC1F1020201221344E0E7BF
:1050700023685A0507D42369424631462846B84773
:1050800001302AD16AE7B9F1650F40F2E28094ED70
:10509000127BB5EE407BF1EE10FA33D1384A012392
:1050A00031462846B84701303FF458AFDDE90723C1
:1050B0009A4202DB2368D8070FD553465A46314639
:1050C0002846B84701303FF449AF4FF0000804F1DB
:1050D0001A09089B013B434509DC23689B0700F143
:1050E0000881E068099B9842B8BF184638E7012359
:1050F0004A4631462846B84701303FF42FAF08F101
:105100000108E6E7079B002B3CDC1D4A01233146E2
:105110002846B84701303FF421AFDDE907231343A8
:1051200002D12368D907D8D553465A463146284676
:10513000B84701303FF412AF4FF0000904F11A0AEA
:10514000079B5B424B4501DC089B95E701235246D8
:1051500031462846B84701303FF400AF09F1010954
:10516000EEE700BFAFF30080FFFFFFFFFFFFEF7F21
:10517000A4940008A8940008B0940008AC94000817
:10518000B4940008089AA36D9A42A8BF1A46002A50
:10519000914638DC0023059329EAE97904F11A02E3
:1051A000A36D05990493A3EB09038B4233DCDDE97E
:1051B00007239A423CDB2368DA0739D4089B049A18
:1051C00007999A1AA3EB01099145A8BF9146B9F135
:1051D000000F35DC4FF0000829EAE97904F11A0ADA
:1051E000DDE907239B1AA3EB090343457FF775AF5E
:1051F0000123524631462846B84701303FF4AEAE4F
:1052000008F10108ECE71346314642462846B84704
:105210000130BFD1A2E60123314628460492B847A7
:1052200001303FF49BAE059B049A01330593B7E729
:1052300053465A4631462846B8470130BED18DE61E
:10524000049A4B46424431462846B8470130C1D102
:1052500084E6089A012A01DCDB0737D501234246A0
:1052600031462846B84701303FF478AE53465A4697
:1052700031462846B84701303FF470AE94ED127BBA
:10528000B5EE407BF1EE10FA1BD0089B08F101024D
:10529000013B31462846B84701300ED15EE6012376
:1052A0004A4631462846B84701303FF457AE08F128
:1052B0000108089B013B4345F1DC049B04F15002CB
:1052C000DBE64FF0000804F11A09F2E70123424639
:1052D000DFE701234A4631462846B84701303FF40C
:1052E0003DAE08F10108E36809995B1A4345F0DC1B
:1052F000F7E64FF0000804F11909F4E72DE9F0474B
:10530000164699468A680B69DDF820809342B8BF3B
:105310001346336091F8432007460C460AB1013327
:1053200033602368990642BF3368023333602568CF
:1053300015F0060506D104F1190AE36832689B1AD4
:10534000AB4226DC94F84320131E226818BF0123C9
:1053500092062BD404F1430249463846C047013037
:105360001ED02368E568326803F00603042B08BFEB
:10537000AD1AA36822690CBF25EAE57500259342A2
:10538000C4BF9B1AED1800261A34B5421AD100206A
:1053900008E00123524649463846C047013003D150
:1053A0004FF0FF30BDE8F0870135C6E7E1185A1C21
:1053B000302081F84300224494F8451082F84310CD
:1053C0000233C7E70123224649463846C047013029
:1053D000E6D00136D9E700002DE9FF470F7E0C9D8E
:1053E000782F914680460C469A4601F1430207D831
:1053F000622F0AD8002F00F0D880582F00F0A38029
:1054000004F1420584F842703AE0A7F16303152BDA
:10541000F6D801A151F823F0715400088554000812
:105420000154000801540008015400080154000808
:105430008554000801540008015400080154000874
:105440000154000891550008B55400087355000830
:105450000154000801540008B35500080154000825
:10546000B554000801540008015400087B55000899
:105470002B681A1D1B682A6004F1420584F842302B
:105480000123A3E020682968060601F104030AD578
:105490000E682B60002E03DA2D23764284F8433009
:1054A0005E480A2319E00E682B6010F0400F18BF09
:1054B00036B2EFE72B682068191D2960010601D577
:1054C0001E6802E04606FBD51E8854486F2F0CBFAD
:1054D00008230A23002184F843106568A560002D85
:1054E000A2BF216821F0040121600EB9002D4DD02A
:1054F0001546B6FBF3F103FB1167C75D05F8017DA7
:105500003746BB420E46F4D9082B0BD12368DE0781
:1055100008D5236961689942DEBF302305F8013C54
:1055200005F1FF35521B2261CDF800A04B4603AABE
:1055300021464046FFF7E2FE01304CD14FF0FF30EC
:1055400004B0BDE8F087354881F8457029682368C4
:1055500051F8046B29601D0614D5DF0744BF43F0E2
:10556000200323601EB9236823F020032360102347
:10557000B0E7236843F0200323607823284884F8A9
:105580004530E3E7590648BFB6B2E6E71546BBE744
:105590002B6826686169181D286035061B6801D5CF
:1055A000196002E07006FBD51980002323611546BF
:1055B000BAE72B681A1D2A601D6862680021284618
:1055C000FAF746FE08B1401B606063682361002360
:1055D00084F84330A8E723692A4649464046D04725
:1055E0000130ABD023689B0713D4E068039B98423B
:1055F000B8BF1846A4E70123324649464046D04783
:1056000001309BD00135E36803995B1AAB42F2DCB1
:10561000EBE7002504F11906F5E700BFB694000892
:10562000C79400082DE9F04F87B0174603938B68A5
:105630005A1EB2F5AE7F83BF6FF4AE755B1902934D
:10564000002386BF40F25D138B6002930B688B468C
:10565000002543F4F0634BF81C3BCDE9045580462C
:105660000C465E46AA46A9460195A26852B13B681F
:105670001B784E2B64D8402B3CD8A3F12B01C8B229
:105680000E283AD9B9F1000F03D0236823F48073B0
:1056900023600AF1FF3ABAF1010F00F213815E456F
:1056A00000F205810125284607B0BDE8F08FA3F17F
:1056B00061020D2AE6D801A151F822F0FB5700083B
:1056C0008556000885560008855600085B58000876
:1056D0003358000885560008855600080958000808
:1056E000855600088556000885560008855600082E
:1056F000C1570008A3F14102DBE70E29C2D801A07F
:1057000050F821F0B357000885560008B357000839
:105710004758000885560008615700089D57000843
:105720009D5700089D5700089D5700089D57000889
:105730009D5700089D5700089D5700089D57000879
:105740006E2B09D8602BB2D8542B77D0592B99D116
:10575000072D97D1082529E0742B6FD0792BF6E718
:105760002168C8051AD5029B21F08001216009F14A
:1057700001091BB1013B01320293A260A368013B06
:10578000A3602369013323617B68013B002B7B60AD
:1057900040F384803B6801333B6066E71AEB050FFA
:1057A0007FF470AF226822F4C072226006F8013BD9
:1057B000E4E7226810067FF565AF22F08002F4E787
:1057C000BAF1000F0ED1B9F1000F0ED1226802F428
:1057D000E061B1F5E06F08D122F4F06222604FF091
:1057E000010AE3E7BAF1020F55D0012D02D0042DD2
:1057F0007FF448AF0135EDB2D8E7BAF1010F7FF47D
:1058000041AF4FF0020AD1E77DB9B9F1000F7FF443
:105810003CAF226802F4E061B1F5E06F7FF439AF8C
:1058200022F4F06222600125C0E7032DE2D0052DAD
:10583000DEE7022D7FF426AF0325B7E7062D7FF4C0
:1058400021AF0725B2E7226891057FF51BAF22F44F
:1058500020722260CDF80490A8E7226802F4A061CB
:10586000B1F5806F06D050057FF50CAFB9F1000F90
:105870003FF40FAF910558BF019922F4F06258BF71
:10588000A9EB010142F4C07258BFCDE904162260B1
:105890004FF000098AE74FF0030A87E7D4F8803118
:1058A00039464046984700283FF4DFAEEAE6D4F890
:1058B0007C3116F8011D3A46404698472369013B62
:1058C0002361ECE66B1E062B25D8022D36D85E45EB
:1058D0007FF6E8AED4F87C3116F8011D3A46404612
:1058E00098472369013B2361F1E70298D4F87C31A2
:1058F00010F8011D02903A46404698472369013B43
:1059000023610AF1FF3A5FFA8AFABAF1020FECD189
:10591000033DEDB2761B2368DA052FD55B0510D564
:105920005E457FF6BFAED4F87C3116F8011D3A46CD
:10593000404698472369013B2361F1E7AA46029656
:10594000DFE716F8011C2369652903F1FF3306F12F
:10595000FF3523610CD045290AD0D4F87C313A4672
:1059600040469847236916F8021C013BB51E236187
:10597000D4F87C313A46404698472E46256815F0C3
:1059800010054ED13570236803F4C063B3F5806F02
:1059900019D1019B4B45A3EB090221D100225946A5
:1059A000404600F03BFE2268039B12F0020F1B688A
:1059B00021D003991A1D0A601B6883ED000BE36870
:1059C0000133E3606FE6049B002BE7D005990A23BF
:1059D0002A460131404600F0A9FE049B059EC21AEA
:1059E00004F26F139E4228BF04F5B7760E49304685
:1059F00000F024F8D2E7039912F0040F03F1040237
:105A00000A60D9D1B4EE400BF1EE10FA1E6805D74A
:105A1000064800F00DF886ED000AD0E7B7EEC00B9F
:105A2000F9E700253FE600BFD8940008E098000899
:105A30009FED010A704700BF0000C07F0EB400B5A3
:105A40009CB01DAB029006906FF000410948079191
:105A50000491094953F8042B05910068019302A9A8
:105A600002F00CFE029B00221A701CB05DF804EBE1
:105A700003B070477C0000200802FFFF70B50446A9
:105A80000D46164645EC104B02F05AFB7EB1C5F3AD
:105A90000A53C3F16B03002B09DD1B0503F17F5192
:105AA000002001F5401141EC170B20EE070B70BDF3
:105AB0002DE9F04F2DED0E8B97B01F46002312936A
:105AC000A14B0D921B680793044618468B46FAF7C4
:105AD000B7FB4FF0000805464FF00009CDF844B081
